{
  "contractName": "ArbExample",
  "abi": [
    {
      "payable": true,
      "stateMutability": "payable",
      "type": "fallback"
    },
    {
      "constant": true,
      "inputs": [],
      "name": "DAI",
      "outputs": [
        {
          "internalType": "address",
          "name": "",
          "type": "address"
        }
      ],
      "payable": false,
      "stateMutability": "view",
      "type": "function"
    },
    {
      "constant": true,
      "inputs": [],
      "name": "KYBER_PROXY",
      "outputs": [
        {
          "internalType": "contract IKyber",
          "name": "",
          "type": "address"
        }
      ],
      "payable": false,
      "stateMutability": "view",
      "type": "function"
    },
    {
      "constant": true,
      "inputs": [],
      "name": "SAI",
      "outputs": [
        {
          "internalType": "address",
          "name": "",
          "type": "address"
        }
      ],
      "payable": false,
      "stateMutability": "view",
      "type": "function"
    },
    {
      "constant": true,
      "inputs": [],
      "name": "USDC",
      "outputs": [
        {
          "internalType": "address",
          "name": "",
          "type": "address"
        }
      ],
      "payable": false,
      "stateMutability": "view",
      "type": "function"
    },
    {
      "constant": true,
      "inputs": [],
      "name": "WETH",
      "outputs": [
        {
          "internalType": "address",
          "name": "",
          "type": "address"
        }
      ],
      "payable": false,
      "stateMutability": "view",
      "type": "function"
    },
    {
      "constant": true,
      "inputs": [
        {
          "internalType": "address",
          "name": "",
          "type": "address"
        }
      ],
      "name": "currencies",
      "outputs": [
        {
          "internalType": "uint256",
          "name": "",
          "type": "uint256"
        }
      ],
      "payable": false,
      "stateMutability": "view",
      "type": "function"
    },
    {
      "constant": true,
      "inputs": [],
      "name": "loan",
      "outputs": [
        {
          "internalType": "uint256",
          "name": "",
          "type": "uint256"
        }
      ],
      "payable": false,
      "stateMutability": "view",
      "type": "function"
    },
    {
      "constant": true,
      "inputs": [],
      "name": "owner",
      "outputs": [
        {
          "internalType": "address",
          "name": "",
          "type": "address"
        }
      ],
      "payable": false,
      "stateMutability": "view",
      "type": "function"
    },
    {
      "constant": true,
      "inputs": [
        {
          "internalType": "address",
          "name": "token",
          "type": "address"
        }
      ],
      "name": "tokenToMarketId",
      "outputs": [
        {
          "internalType": "uint256",
          "name": "",
          "type": "uint256"
        }
      ],
      "payable": false,
      "stateMutability": "view",
      "type": "function"
    },
    {
      "constant": false,
      "inputs": [],
      "name": "withdrawFunds",
      "outputs": [],
      "payable": false,
      "stateMutability": "nonpayable",
      "type": "function"
    },
    {
      "constant": false,
      "inputs": [
        {
          "internalType": "address",
          "name": "flashToken",
          "type": "address"
        },
        {
          "internalType": "uint256",
          "name": "flashAmount",
          "type": "uint256"
        }
      ],
      "name": "getFlashloan",
      "outputs": [],
      "payable": false,
      "stateMutability": "nonpayable",
      "type": "function"
    },
    {
      "constant": false,
      "inputs": [
        {
          "internalType": "address",
          "name": "",
          "type": "address"
        },
        {
          "components": [
            {
              "internalType": "address",
              "name": "owner",
              "type": "address"
            },
            {
              "internalType": "uint256",
              "name": "number",
              "type": "uint256"
            }
          ],
          "internalType": "struct Structs.Info",
          "name": "",
          "type": "tuple"
        },
        {
          "internalType": "bytes",
          "name": "data",
          "type": "bytes"
        }
      ],
      "name": "callFunction",
      "outputs": [],
      "payable": false,
      "stateMutability": "nonpayable",
      "type": "function"
    }
  ],
  "bytecode": "0x6080604052731e0447b19bb6ecfdae1e4ae1694b0c3659614e4e6000806101000a81548173ffffffffffffffffffffffffffffffffffffffff021916908373ffffffffffffffffffffffffffffffffffffffff16021790555073c02aaa39b223fe8d0a0e5c4f27ead9083c756cc2600160006101000a81548173ffffffffffffffffffffffffffffffffffffffff021916908373ffffffffffffffffffffffffffffffffffffffff1602179055507389d24a6b4ccb1b6faa2625fe562bdd9a23260359600260006101000a81548173ffffffffffffffffffffffffffffffffffffffff021916908373ffffffffffffffffffffffffffffffffffffffff16021790555073a0b86991c6218b36c1d19d4a2e9eb0ce3606eb48600360006101000a81548173ffffffffffffffffffffffffffffffffffffffff021916908373ffffffffffffffffffffffffffffffffffffffff160217905550736b175474e89094c44da98b954eedeac495271d0f600460006101000a81548173ffffffffffffffffffffffffffffffffffffffff021916908373ffffffffffffffffffffffffffffffffffffffff16021790555073818e6fecd516ecc3849daf6845e3ec868087b755600660006101000a81548173ffffffffffffffffffffffffffffffffffffffff021916908373ffffffffffffffffffffffffffffffffffffffff1602179055507389d24a6b4ccb1b6faa2625fe562bdd9a23260359600760006101000a81548173ffffffffffffffffffffffffffffffffffffffff021916908373ffffffffffffffffffffffffffffffffffffffff160217905550600160056000600160009054906101000a900473ffffffffffffffffffffffffffffffffffffffff1673ffffffffffffffffffffffffffffffffffffffff1673ffffffffffffffffffffffffffffffffffffffff16815260200190815260200160002081905550600260056000600260009054906101000a900473ffffffffffffffffffffffffffffffffffffffff1673ffffffffffffffffffffffffffffffffffffffff1673ffffffffffffffffffffffffffffffffffffffff16815260200190815260200160002081905550600360056000600360009054906101000a900473ffffffffffffffffffffffffffffffffffffffff1673ffffffffffffffffffffffffffffffffffffffff1673ffffffffffffffffffffffffffffffffffffffff16815260200190815260200160002081905550600460056000600460009054906101000a900473ffffffffffffffffffffffffffffffffffffffff1673ffffffffffffffffffffffffffffffffffffffff1673ffffffffffffffffffffffffffffffffffffffff1681526020019081526020016000208190555033600860006101000a81548173ffffffffffffffffffffffffffffffffffffffff021916908373ffffffffffffffffffffffffffffffffffffffff160217905550611f35806104426000396000f3fe6080604052600436106100a75760003560e01c80638da5cb5b116100645780638da5cb5b146101a7578063ac542fb8146101d2578063ad5c4648146101fb578063b826878814610226578063d285b7b414610263578063e0bab4c41461028e576100a7565b806324600fc3146100a95780634b3fb7f8146100c05780634fb7db3f146100eb5780636036cba31461011657806389a30271146101535780638b4187131461017e575b005b3480156100b557600080fd5b506100be6102b9565b005b3480156100cc57600080fd5b506100d56104b6565b6040516100e29190611966565b60405180910390f35b3480156100f757600080fd5b506101006104dc565b60405161010d9190611b3f565b60405180910390f35b34801561012257600080fd5b5061013d6004803603610138919081019061138d565b610502565b60405161014a9190611be3565b60405180910390f35b34801561015f57600080fd5b5061016861051a565b6040516101759190611966565b60405180910390f35b34801561018a57600080fd5b506101a560048036036101a09190810190611405565b610540565b005b3480156101b357600080fd5b506101bc6106d6565b6040516101c99190611966565b60405180910390f35b3480156101de57600080fd5b506101f960048036036101f49190810190611471565b6106fc565b005b34801561020757600080fd5b506102106107c2565b60405161021d9190611966565b60405180910390f35b34801561023257600080fd5b5061024d6004803603610248919081019061138d565b6107e8565b60405161025a9190611be3565b60405180910390f35b34801561026f57600080fd5b5061027861087d565b6040516102859190611be3565b60405180910390f35b34801561029a57600080fd5b506102a3610883565b6040516102b09190611966565b60405180910390f35b600860009054906101000a900473ffffffffffffffffffffffffffffffffffffffff1673ffffffffffffffffffffffffffffffffffffffff163373ffffffffffffffffffffffffffffffffffffffff161461031357600080fd5b3373ffffffffffffffffffffffffffffffffffffffff166108fc479081150290604051600060405180830381858888f19350505050158015610359573d6000803e3d6000fd5b50600760009054906101000a900473ffffffffffffffffffffffffffffffffffffffff1673ffffffffffffffffffffffffffffffffffffffff1663a9059cbb33600760009054906101000a900473ffffffffffffffffffffffffffffffffffffffff1673ffffffffffffffffffffffffffffffffffffffff166370a08231306040518263ffffffff1660e01b81526004016103f49190611981565b60206040518083038186803b15801561040c57600080fd5b505afa158015610420573d6000803e3d6000fd5b505050506040513d601f19601f8201168201806040525061044491908101906114d6565b6040518363ffffffff1660e01b81526004016104619291906119d3565b602060405180830381600087803b15801561047b57600080fd5b505af115801561048f573d6000803e3d6000fd5b505050506040513d601f19601f820116820180604052506104b391908101906114ad565b50565b600260009054906101000a900473ffffffffffffffffffffffffffffffffffffffff1681565b600660009054906101000a900473ffffffffffffffffffffffffffffffffffffffff1681565b60056020528060005260406000206000915090505481565b600360009054906101000a900473ffffffffffffffffffffffffffffffffffffffff1681565b6000809054906101000a900473ffffffffffffffffffffffffffffffffffffffff1673ffffffffffffffffffffffffffffffffffffffff163373ffffffffffffffffffffffffffffffffffffffff16146105cf576040517f08c379a00000000000000000000000000000000000000000000000000000000081526004016105c690611b83565b60405180910390fd5b600080600084846105e391908101906113b6565b92509250925060008373ffffffffffffffffffffffffffffffffffffffff166370a08231306040518263ffffffff1660e01b81526004016106249190611981565b60206040518083038186803b15801561063c57600080fd5b505afa158015610650573d6000803e3d6000fd5b505050506040513d601f19601f8201168201806040525061067491908101906114d6565b905082828203146106ba576040517f08c379a00000000000000000000000000000000000000000000000000000000081526004016106b190611ba3565b60405180910390fd5b806009819055506106cc6009546108a9565b5050505050505050565b600860009054906101000a900473ffffffffffffffffffffffffffffffffffffffff1681565b60008273ffffffffffffffffffffffffffffffffffffffff166370a08231306040518263ffffffff1660e01b81526004016107379190611981565b60206040518083038186803b15801561074f57600080fd5b505afa158015610763573d6000803e3d6000fd5b505050506040513d601f19601f8201168201806040525061078791908101906114d6565b905060608383836040516020016107a093929190611a4e565b60405160208183030381529060405290506107bc8484836108ee565b50505050565b600160009054906101000a900473ffffffffffffffffffffffffffffffffffffffff1681565b600080600560008473ffffffffffffffffffffffffffffffffffffffff1673ffffffffffffffffffffffffffffffffffffffff1681526020019081526020016000205490506000811415610871576040517f08c379a000000000000000000000000000000000000000000000000000000000815260040161086890611bc3565b60405180910390fd5b60018103915050919050565b60095481565b600460009054906101000a900473ffffffffffffffffffffffffffffffffffffffff1681565b6108ea600760009054906101000a900473ffffffffffffffffffffffffffffffffffffffff167309cabec1ead1c0ba254b09efb3ee13841712be1483610d5d565b5050565b8273ffffffffffffffffffffffffffffffffffffffff1663095ea7b36000809054906101000a900473ffffffffffffffffffffffffffffffffffffffff16600185016040518363ffffffff1660e01b815260040161094d929190611a25565b602060405180830381600087803b15801561096757600080fd5b505af115801561097b573d6000803e3d6000fd5b505050506040513d601f19601f8201168201806040525061099f91908101906114ad565b50606060016040519080825280602002602001820160405280156109dd57816020015b6109ca61113b565b8152602001906001900390816109c25790505b50905060606003604051908082528060200260200182016040528015610a1d57816020015b610a0a61116b565b815260200190600190039081610a025790505b50905060405180604001604052803073ffffffffffffffffffffffffffffffffffffffff168152602001600081525082600081518110610a5957fe5b6020026020010181905250610a6c6111d7565b6040518060800160405280600015158152602001600080811115610a8c57fe5b8152602001600080811115610a9d57fe5b8152602001868152509050610ab0611215565b600181600001906008811115610ac257fe5b90816008811115610acf57fe5b815250506000816020018181525050818160400181905250610af0876107e8565b816060018181525050308160a0019073ffffffffffffffffffffffffffffffffffffffff16908173ffffffffffffffffffffffffffffffffffffffff16815250508083600081518110610b3f57fe5b6020026020010181905250610b52611215565b600881600001906008811115610b6457fe5b90816008811115610b7157fe5b815250506000816020018181525050308160a0019073ffffffffffffffffffffffffffffffffffffffff16908173ffffffffffffffffffffffffffffffffffffffff1681525050858160e001819052508084600181518110610bcf57fe5b6020026020010181905250610be2611215565b610bea6111d7565b6040518060800160405280600115158152602001600080811115610c0a57fe5b8152602001600080811115610c1b57fe5b815260200160018b018152509050600082600001906008811115610c3b57fe5b90816008811115610c4857fe5b815250506000826020018181525050808260400181905250610c698a6107e8565b826060018181525050308260a0019073ffffffffffffffffffffffffffffffffffffffff16908173ffffffffffffffffffffffffffffffffffffffff16815250508186600281518110610cb857fe5b60200260200101819052506000809054906101000a900473ffffffffffffffffffffffffffffffffffffffff1673ffffffffffffffffffffffffffffffffffffffff1663a67a6a4588886040518363ffffffff1660e01b8152600401610d1f929190611a85565b600060405180830381600087803b158015610d3957600080fd5b505af1158015610d4d573d6000803e3d6000fd5b5050505050505050505050505050565b600080610d8e600660009054906101000a900473ffffffffffffffffffffffffffffffffffffffff16868533610e2c565b90508373ffffffffffffffffffffffffffffffffffffffff1663f39b5b9b826001426040518463ffffffff1660e01b8152600401610dcd929190611b5a565b6020604051808303818588803b158015610de657600080fd5b505af1158015610dfa573d6000803e3d6000fd5b50505050506040513d601f19601f82011682018060405250610e1f91908101906114d6565b5060019150509392505050565b60008373ffffffffffffffffffffffffffffffffffffffff166323b872dd3330866040518463ffffffff1660e01b8152600401610e6b9392919061199c565b602060405180830381600087803b158015610e8557600080fd5b505af1158015610e99573d6000803e3d6000fd5b505050506040513d601f19601f82011682018060405250610ebd91908101906114ad565b508373ffffffffffffffffffffffffffffffffffffffff1663095ea7b3600660009054906101000a900473ffffffffffffffffffffffffffffffffffffffff1660006040518363ffffffff1660e01b8152600401610f1c9291906119fc565b602060405180830381600087803b158015610f3657600080fd5b505af1158015610f4a573d6000803e3d6000fd5b505050506040513d601f19601f82011682018060405250610f6e91908101906114ad565b508373ffffffffffffffffffffffffffffffffffffffff1663095ea7b3600660009054906101000a900473ffffffffffffffffffffffffffffffffffffffff16856040518363ffffffff1660e01b8152600401610fcc929190611a25565b602060405180830381600087803b158015610fe657600080fd5b505af1158015610ffa573d6000803e3d6000fd5b505050506040513d601f19601f8201168201806040525061101e91908101906114ad565b506000600660009054906101000a900473ffffffffffffffffffffffffffffffffffffffff1673ffffffffffffffffffffffffffffffffffffffff166329589f61600760009054906101000a900473ffffffffffffffffffffffffffffffffffffffff168673eeeeeeeeeeeeeeeeeeeeeeeeeeeeeeeeeeeeeeee307a13726987666190aeec798abe93f11d65ee7f340000000000000000600060046040518863ffffffff1660e01b81526004016110db9796959493929190611abc565b602060405180830381600087803b1580156110f557600080fd5b505af1158015611109573d6000803e3d6000fd5b505050506040513d601f19601f8201168201806040525061112d91908101906114d6565b905080915050949350505050565b6040518060400160405280600073ffffffffffffffffffffffffffffffffffffffff168152602001600081525090565b6040518061010001604052806000600881111561118457fe5b815260200160008152602001611198611281565b81526020016000815260200160008152602001600073ffffffffffffffffffffffffffffffffffffffff16815260200160008152602001606081525090565b60405180608001604052806000151581526020016000808111156111f757fe5b815260200160008081111561120857fe5b8152602001600081525090565b6040518061010001604052806000600881111561122e57fe5b815260200160008152602001611242611281565b81526020016000815260200160008152602001600073ffffffffffffffffffffffffffffffffffffffff16815260200160008152602001606081525090565b60405180608001604052806000151581526020016000808111156112a157fe5b81526020016000808111156112b257fe5b8152602001600081525090565b6000813590506112ce81611e96565b92915050565b6000813590506112e381611ead565b92915050565b6000815190506112f881611ec4565b92915050565b60008083601f84011261131057600080fd5b8235905067ffffffffffffffff81111561132957600080fd5b60208301915083600182028301111561134157600080fd5b9250929050565b60006040828403121561135a57600080fd5b81905092915050565b60008135905061137281611edb565b92915050565b60008151905061138781611edb565b92915050565b60006020828403121561139f57600080fd5b60006113ad848285016112bf565b91505092915050565b6000806000606084860312156113cb57600080fd5b60006113d9868287016112d4565b93505060206113ea86828701611363565b92505060406113fb86828701611363565b9150509250925092565b6000806000806080858703121561141b57600080fd5b6000611429878288016112bf565b945050602061143a87828801611348565b935050606085013567ffffffffffffffff81111561145757600080fd5b611463878288016112fe565b925092505092959194509250565b6000806040838503121561148457600080fd5b6000611492858286016112bf565b92505060206114a385828601611363565b9150509250929050565b6000602082840312156114bf57600080fd5b60006114cd848285016112e9565b91505092915050565b6000602082840312156114e857600080fd5b60006114f684828501611378565b91505092915050565b600061150b8383611811565b905092915050565b600061151f8383611919565b60408301905092915050565b61153481611d41565b82525050565b61154381611cae565b82525050565b61155281611cae565b82525050565b600061156382611c1e565b61156d8185611c59565b93508360208202850161157f85611bfe565b8060005b858110156115bb578484038952815161159c85826114ff565b94506115a783611c3f565b925060208a01995050600181019050611583565b50829750879550505050505092915050565b60006115d882611c29565b6115e28185611c6a565b93506115ed83611c0e565b8060005b8381101561161e5781516116058882611513565b975061161083611c4c565b9250506001810190506115f1565b5085935050505092915050565b61163481611cd2565b82525050565b600061164582611c34565b61164f8185611c7b565b935061165f818560208601611e2b565b61166881611e5e565b840191505092915050565b61167c81611d53565b82525050565b61168b81611d77565b82525050565b61169a81611d9b565b82525050565b6116a981611dad565b82525050565b6116b881611dbf565b82525050565b6116c781611dd1565b82525050565b6116d681611de3565b82525050565b6116e581611df5565b82525050565b60006116f8600483611c8c565b91507f5045524d000000000000000000000000000000000000000000000000000000006000830152602082019050919050565b6000611738602c83611c9d565b91507f466c6173684c6f616e3a20636f756c642062652063616c6c656420627920447960008301527f447820706f6f6c206f6e6c7900000000000000000000000000000000000000006020830152604082019050919050565b600061179e601d83611c9d565b91507f636f6e747261637420646964206e6f742067657420746865206c6f616e0000006000830152602082019050919050565b60006117de601c83611c9d565b91507f466c6173684c6f616e3a20556e737570706f7274656420746f6b656e000000006000830152602082019050919050565b60006101608301600083015161182a6000860182611691565b50602083015161183d6020860182611948565b50604083015161185060408601826118c4565b50606083015161186360c0860182611948565b50608083015161187660e0860182611948565b5060a083015161188a61010086018261153a565b5060c083015161189e610120860182611948565b5060e08301518482036101408601526118b7828261163a565b9150508091505092915050565b6080820160008201516118da600085018261162b565b5060208201516118ed60208501826116a0565b50604082015161190060408501826116af565b5060608201516119136060850182611948565b50505050565b60408201600082015161192f600085018261153a565b5060208201516119426020850182611948565b50505050565b61195181611d37565b82525050565b61196081611d37565b82525050565b600060208201905061197b6000830184611549565b92915050565b6000602082019050611996600083018461152b565b92915050565b60006060820190506119b1600083018661152b565b6119be602083018561152b565b6119cb6040830184611957565b949350505050565b60006040820190506119e8600083018561152b565b6119f56020830184611957565b9392505050565b6000604082019050611a116000830185611549565b611a1e60208301846116be565b9392505050565b6000604082019050611a3a6000830185611549565b611a476020830184611957565b9392505050565b6000606082019050611a636000830186611549565b611a706020830185611957565b611a7d6040830184611957565b949350505050565b60006040820190508181036000830152611a9f81856115cd565b90508181036020830152611ab38184611558565b90509392505050565b600061010082019050611ad2600083018a611673565b611adf6020830189611957565b611aec6040830188611673565b611af9606083018761152b565b611b0660808301866116dc565b611b1360a08301856116be565b611b2060c083018461152b565b81810360e0830152611b31816116eb565b905098975050505050505050565b6000602082019050611b546000830184611682565b92915050565b6000604082019050611b6f60008301856116cd565b611b7c6020830184611957565b9392505050565b60006020820190508181036000830152611b9c8161172b565b9050919050565b60006020820190508181036000830152611bbc81611791565b9050919050565b60006020820190508181036000830152611bdc816117d1565b9050919050565b6000602082019050611bf86000830184611957565b92915050565b6000819050602082019050919050565b6000819050602082019050919050565b600081519050919050565b600081519050919050565b600081519050919050565b6000602082019050919050565b6000602082019050919050565b600082825260208201905092915050565b600082825260208201905092915050565b600082825260208201905092915050565b600082825260208201905092915050565b600082825260208201905092915050565b6000611cb982611d17565b9050919050565b6000611ccb82611d17565b9050919050565b60008115159050919050565b6000819050611cec82611e6f565b919050565b6000819050611cff82611e7c565b919050565b6000819050611d1282611e89565b919050565b600073ffffffffffffffffffffffffffffffffffffffff82169050919050565b6000819050919050565b6000611d4c82611e07565b9050919050565b6000611d5e82611d65565b9050919050565b6000611d7082611d17565b9050919050565b6000611d8282611d89565b9050919050565b6000611d9482611d17565b9050919050565b6000611da682611cde565b9050919050565b6000611db882611cf1565b9050919050565b6000611dca82611d04565b9050919050565b6000611ddc82611d37565b9050919050565b6000611dee82611d37565b9050919050565b6000611e0082611d37565b9050919050565b6000611e1282611e19565b9050919050565b6000611e2482611d17565b9050919050565b60005b83811015611e49578082015181840152602081019050611e2e565b83811115611e58576000848401525b50505050565b6000601f19601f8301169050919050565b60098110611e7957fe5b50565b60018110611e8657fe5b50565b60018110611e9357fe5b50565b611e9f81611cae565b8114611eaa57600080fd5b50565b611eb681611cc0565b8114611ec157600080fd5b50565b611ecd81611cd2565b8114611ed857600080fd5b50565b611ee481611d37565b8114611eef57600080fd5b5056fea365627a7a72315820f46277d21f5644b01b381319868548f4fb4a900895342a4588d65aafd67530326c6578706572696d656e74616cf564736f6c63430005100040",
  "source": "pragma solidity ^0.5.0;\r\npragma experimental ABIEncoderV2;\r\n\r\ncontract UniswapExchangeInterface {\r\n    bytes32 public name;\r\n    bytes32 public symbol;\r\n    uint256 public decimals;\r\n    function tokenAddress() external view returns (address token);\r\n    function factoryAddress() external view returns (address factory);\r\n    function addLiquidity(uint256 min_liquidity, uint256 max_tokens, uint256 deadline) external payable returns (uint256);\r\n    function removeLiquidity(uint256 amount, uint256 min_eth, uint256 min_tokens, uint256 deadline) external returns (uint256, uint256);\r\n    function getEthToTokenInputPrice(uint256 eth_sold) external view returns (uint256 tokens_bought);\r\n    function getEthToTokenOutputPrice(uint256 tokens_bought) external view returns (uint256 eth_sold);\r\n    function getTokenToEthInputPrice(uint256 tokens_sold) external view returns (uint256 eth_bought);\r\n    function getTokenToEthOutputPrice(uint256 eth_bought) external view returns (uint256 tokens_sold);\r\n    function ethToTokenSwapInput(uint256 min_tokens, uint256 deadline) external payable returns (uint256  tokens_bought);\r\n    function ethToTokenTransferInput(uint256 min_tokens, uint256 deadline, address recipient) external payable returns (uint256  tokens_bought);\r\n    function ethToTokenSwapOutput(uint256 tokens_bought, uint256 deadline) external payable returns (uint256  eth_sold);\r\n    function ethToTokenTransferOutput(uint256 tokens_bought, uint256 deadline, address recipient) external payable returns (uint256  eth_sold);\r\n    function tokenToEthSwapInput(uint256 tokens_sold, uint256 min_eth, uint256 deadline) external returns (uint256  eth_bought);\r\n    function tokenToEthTransferInput(uint256 tokens_sold, uint256 min_eth, uint256 deadline, address recipient) external returns (uint256  eth_bought);\r\n    function tokenToEthSwapOutput(uint256 eth_bought, uint256 max_tokens, uint256 deadline) external returns (uint256  tokens_sold);\r\n    function tokenToEthTransferOutput(uint256 eth_bought, uint256 max_tokens, uint256 deadline, address recipient) external returns (uint256  tokens_sold);\r\n    function tokenToTokenSwapInput(uint256 tokens_sold, uint256 min_tokens_bought, uint256 min_eth_bought, uint256 deadline, address token_addr) external returns (uint256  tokens_bought);\r\n    function tokenToTokenTransferInput(uint256 tokens_sold, uint256 min_tokens_bought, uint256 min_eth_bought, uint256 deadline, address recipient, address token_addr) external returns (uint256  tokens_bought);\r\n    function tokenToTokenSwapOutput(uint256 tokens_bought, uint256 max_tokens_sold, uint256 max_eth_sold, uint256 deadline, address token_addr) external returns (uint256  tokens_sold);\r\n    function tokenToTokenTransferOutput(uint256 tokens_bought, uint256 max_tokens_sold, uint256 max_eth_sold, uint256 deadline, address recipient, address token_addr) external returns (uint256  tokens_sold);\r\n    function tokenToExchangeSwapInput(uint256 tokens_sold, uint256 min_tokens_bought, uint256 min_eth_bought, uint256 deadline, address exchange_addr) external returns (uint256  tokens_bought);\r\n    function tokenToExchangeTransferInput(uint256 tokens_sold, uint256 min_tokens_bought, uint256 min_eth_bought, uint256 deadline, address recipient, address exchange_addr) external returns (uint256  tokens_bought);\r\n    function tokenToExchangeSwapOutput(uint256 tokens_bought, uint256 max_tokens_sold, uint256 max_eth_sold, uint256 deadline, address exchange_addr) external returns (uint256  tokens_sold);\r\n    function tokenToExchangeTransferOutput(uint256 tokens_bought, uint256 max_tokens_sold, uint256 max_eth_sold, uint256 deadline, address recipient, address exchange_addr) external returns (uint256  tokens_sold);\r\n    function transfer(address _to, uint256 _value) external returns (bool);\r\n    function transferFrom(address _from, address _to, uint256 value) external returns (bool);\r\n    function approve(address _spender, uint256 _value) external returns (bool);\r\n    function allowance(address _owner, address _spender) external view returns (uint256);\r\n    function balanceOf(address _owner) external view returns (uint256);\r\n    function totalSupply() external view returns (uint256);\r\n    function setup(address token_addr) external;\r\n}\r\n\r\ninterface ERC20 {\r\n    function totalSupply() external view returns (uint supply);\r\n    function balanceOf(address _owner) external view returns (uint balance);\r\n    function transfer(address _to, uint _value) external returns (bool success);\r\n    function transferFrom(address _from, address _to, uint _value) external returns (bool success);\r\n    function approve(address _spender, uint _value) external returns (bool success);\r\n    function allowance(address _owner, address _spender) external view returns (uint remaining);\r\n    function decimals() external view returns(uint digits);\r\n    event Approval(address indexed _owner, address indexed _spender, uint _value);\r\n}\r\n\r\ninterface IKyber {\r\n    function maxGasPrice() external view returns(uint);\r\n    function getUserCapInWei(address user) external view returns(uint);\r\n    function getUserCapInTokenWei(address user, ERC20 token) external view returns(uint);\r\n    function enabled() external view returns(bool);\r\n    function info(bytes32 id) external view returns(uint);\r\n    function getExpectedRate(ERC20 src, ERC20 dest, uint srcQty) external view\r\n        returns (uint expectedRate, uint slippageRate);\r\n    function tradeWithHint(\r\n        ERC20 src,\r\n        uint srcAmount,\r\n        ERC20 dest,\r\n        address destAddress,\r\n        uint maxDestAmount,\r\n        uint minConversionRate,\r\n        address walletId,\r\n        bytes calldata hint\r\n    ) external payable returns(uint);\r\n    function swapEtherToToken(ERC20 token, uint minRate) external returns (uint);\r\n    function swapTokenToEther(ERC20 token, uint tokenQty, uint minRate) external returns (uint);\r\n}\r\n\r\ncontract Trader {\r\n    IKyber public KYBER_PROXY = IKyber(0x818E6FECD516Ecc3849DAf6845e3EC868087B755);\r\n    address sai = 0x89d24A6b4CcB1B6fAA2625fE562bDD9a23260359;\r\n    address public owner;\r\n\r\n    modifier onlyOwner() {\r\n        if (msg.sender != owner) {\r\n            revert();\r\n        }\r\n        _;\r\n    }\r\n\r\n    constructor() public {\r\n      owner = msg.sender;\r\n    }\r\n\r\n    // Allow contract to receive Ether\r\n    function () external payable {}\r\n\r\n    function kyberSwap (IKyber _kyberNetworkProxy, ERC20 token, uint tokenQty, address destAddress) internal returns (uint) {\r\n       token.transferFrom(msg.sender, address(this), tokenQty);\r\n       token.approve(address(KYBER_PROXY), 0);\r\n       token.approve(address(KYBER_PROXY), tokenQty);\r\n       uint destAmount = KYBER_PROXY.tradeWithHint(ERC20(sai), tokenQty, ERC20(0x00eeeeeeeeeeeeeeeeeeeeeeeeeeeeeeeeeeeeeeee), address(this), 8000000000000000000000000000000000000000000000000000000000000000, 0, 0x0000000000000000000000000000000000000004, \"PERM\");\r\n       return destAmount;\r\n    }\r\n\r\n    function buyKyberSellUniswap(address _fromToken, address _uniswap, uint _amount) internal returns (bool){\r\n        uint _ethAmount = kyberSwap(KYBER_PROXY, ERC20(_fromToken), _amount, msg.sender);\r\n        UniswapExchangeInterface(_uniswap).ethToTokenSwapInput.value(_ethAmount)(1, block.timestamp);\r\n        return true;\r\n    }\r\n\r\n    function arb(uint256 _amount) internal {\r\n        buyKyberSellUniswap(sai, 0x09cabEC1eAd1c0Ba254B09efb3EE13841712bE14, _amount);\r\n    }\r\n\r\n    function withdrawFunds() onlyOwner public {\r\n        msg.sender.transfer(address(this).balance);\r\n        ERC20(sai).transfer(msg.sender, ERC20(sai).balanceOf(address(this)));\r\n    }\r\n}\r\n\r\n\r\ninterface Structs {\r\n    struct Val {\r\n        uint256 value;\r\n    }\r\n\r\n    enum ActionType {\r\n      Deposit,   // supply tokens\r\n      Withdraw,  // borrow tokens\r\n      Transfer,  // transfer balance between accounts\r\n      Buy,       // buy an amount of some token (externally)\r\n      Sell,      // sell an amount of some token (externally)\r\n      Trade,     // trade tokens against another account\r\n      Liquidate, // liquidate an undercollateralized or expiring account\r\n      Vaporize,  // use excess tokens to zero-out a completely negative account\r\n      Call       // send arbitrary data to an address\r\n    }\r\n\r\n    enum AssetDenomination {\r\n        Wei // the amount is denominated in wei\r\n    }\r\n\r\n    enum AssetReference {\r\n        Delta // the amount is given as a delta from the current value\r\n    }\r\n\r\n    struct AssetAmount {\r\n        bool sign; // true if positive\r\n        AssetDenomination denomination;\r\n        AssetReference ref;\r\n        uint256 value;\r\n    }\r\n\r\n    struct ActionArgs {\r\n        ActionType actionType;\r\n        uint256 accountId;\r\n        AssetAmount amount;\r\n        uint256 primaryMarketId;\r\n        uint256 secondaryMarketId;\r\n        address otherAddress;\r\n        uint256 otherAccountId;\r\n        bytes data;\r\n    }\r\n\r\n    struct Info {\r\n        address owner;  // The address that owns the account\r\n        uint256 number; // A nonce that allows a single address to control many accounts\r\n    }\r\n\r\n    struct Wei {\r\n        bool sign; // true if positive\r\n        uint256 value;\r\n    }\r\n}\r\n\r\ncontract DyDxPool is Structs {\r\n    function getAccountWei(Info memory account, uint256 marketId) public view returns (Wei memory);\r\n    function operate(Info[] memory, ActionArgs[] memory) public;\r\n}\r\n\r\npragma solidity ^0.5.0;\r\n\r\n\r\n/**\r\n * @dev Interface of the ERC20 standard as defined in the EIP. Does not include\r\n * the optional functions; to access them see `ERC20Detailed`.\r\n */\r\ninterface IERC20 {\r\n    function balanceOf(address account) external view returns (uint256);\r\n\r\n    function approve(address spender, uint256 amount) external returns (bool);\r\n}\r\n\r\npragma solidity ^0.5.0;\r\n\r\n\r\ncontract DyDxFlashLoan is Structs {\r\n    DyDxPool pool = DyDxPool(0x1E0447b19BB6EcFdAe1e4AE1694b0C3659614e4e);\r\n\r\n    address public WETH = 0xC02aaA39b223FE8D0A0e5C4F27eAD9083C756Cc2;\r\n    address public SAI = 0x89d24A6b4CcB1B6fAA2625fE562bDD9a23260359;\r\n    address public USDC = 0xA0b86991c6218b36c1d19D4a2e9Eb0cE3606eB48;\r\n    address public DAI = 0x6B175474E89094C44Da98b954EedeAC495271d0F;\r\n    mapping(address => uint256) public currencies;\r\n\r\n    constructor() public {\r\n        currencies[WETH] = 1;\r\n        currencies[SAI] = 2;\r\n        currencies[USDC] = 3;\r\n        currencies[DAI] = 4;\r\n    }\r\n\r\n    modifier onlyPool() {\r\n        require(\r\n            msg.sender == address(pool),\r\n            \"FlashLoan: could be called by DyDx pool only\"\r\n        );\r\n        _;\r\n    }\r\n\r\n    function tokenToMarketId(address token) public view returns (uint256) {\r\n        uint256 marketId = currencies[token];\r\n        require(marketId != 0, \"FlashLoan: Unsupported token\");\r\n        return marketId - 1;\r\n    }\r\n\r\n    // the DyDx will call `callFunction(address sender, Info memory accountInfo, bytes memory data) public` after during `operate` call\r\n    function flashloan(address token, uint256 amount, bytes memory data)\r\n        internal\r\n    {\r\n        IERC20(token).approve(address(pool), amount + 1);\r\n        Info[] memory infos = new Info[](1);\r\n        ActionArgs[] memory args = new ActionArgs[](3);\r\n\r\n        infos[0] = Info(address(this), 0);\r\n\r\n        AssetAmount memory wamt = AssetAmount(\r\n            false,\r\n            AssetDenomination.Wei,\r\n            AssetReference.Delta,\r\n            amount\r\n        );\r\n        ActionArgs memory withdraw;\r\n        withdraw.actionType = ActionType.Withdraw;\r\n        withdraw.accountId = 0;\r\n        withdraw.amount = wamt;\r\n        withdraw.primaryMarketId = tokenToMarketId(token);\r\n        withdraw.otherAddress = address(this);\r\n\r\n        args[0] = withdraw;\r\n\r\n        ActionArgs memory call;\r\n        call.actionType = ActionType.Call;\r\n        call.accountId = 0;\r\n        call.otherAddress = address(this);\r\n        call.data = data;\r\n\r\n        args[1] = call;\r\n\r\n        ActionArgs memory deposit;\r\n        AssetAmount memory damt = AssetAmount(\r\n            true,\r\n            AssetDenomination.Wei,\r\n            AssetReference.Delta,\r\n            amount + 1\r\n        );\r\n        deposit.actionType = ActionType.Deposit;\r\n        deposit.accountId = 0;\r\n        deposit.amount = damt;\r\n        deposit.primaryMarketId = tokenToMarketId(token);\r\n        deposit.otherAddress = address(this);\r\n\r\n        args[2] = deposit;\r\n\r\n        pool.operate(infos, args);\r\n    }\r\n}\r\n\r\npragma solidity ^0.5.0;\r\n\r\ncontract ArbExample is DyDxFlashLoan, Trader {\r\n    uint256 public loan;\r\n\r\n    function getFlashloan(address flashToken, uint256 flashAmount) external {\r\n        uint256 balanceBefore = IERC20(flashToken).balanceOf(address(this));\r\n        bytes memory data = abi.encode(flashToken, flashAmount, balanceBefore);\r\n        flashloan(flashToken, flashAmount, data); // execution goes to `callFunction`\r\n    }\r\n\r\n    function callFunction(\r\n        address, /* sender */\r\n        Info calldata, /* accountInfo */\r\n        bytes calldata data\r\n    ) external onlyPool {\r\n        (address flashToken, uint256 flashAmount, uint256 balanceBefore) = abi\r\n            .decode(data, (address, uint256, uint256));\r\n        uint256 balanceAfter = IERC20(flashToken).balanceOf(address(this));\r\n        require(\r\n            balanceAfter - balanceBefore == flashAmount,\r\n            \"contract did not get the loan\"\r\n        );\r\n        loan = balanceAfter;\r\n\r\n        arb(loan);\r\n    }\r\n}\r\n",
  "sourcePath": "C:\\Users\\vgril\\OneDrive\\Documents\\Blockchain\\Smart Contracts\\defi-bot\\src\\contracts\\examples\\ArbExample.sol",
  "compiler": {
    "name": "solc",
    "version": "0.5.16+commit.9c3226ce.Emscripten.clang"
  },
  "schemaVersion": "3.4.6",
  "updatedAt": "2022-03-14T19:02:03.750Z",
  "devdoc": {
    "methods": {}
  },
  "userdoc": {
    "methods": {}
  }
}