{
  "contractName": "LeveragedYieldFarm",
  "abi": [
    {
      "inputs": [],
      "payable": false,
      "stateMutability": "nonpayable",
      "type": "constructor"
    },
    {
      "anonymous": false,
      "inputs": [
        {
          "indexed": true,
          "internalType": "address",
          "name": "_from",
          "type": "address"
        },
        {
          "indexed": true,
          "internalType": "bytes32",
          "name": "_id",
          "type": "bytes32"
        },
        {
          "indexed": false,
          "internalType": "uint256",
          "name": "_value",
          "type": "uint256"
        }
      ],
      "name": "FlashLoan",
      "type": "event"
    },
    {
      "payable": true,
      "stateMutability": "payable",
      "type": "fallback"
    },
    {
      "constant": true,
      "inputs": [],
      "name": "DAI",
      "outputs": [
        {
          "internalType": "address",
          "name": "",
          "type": "address"
        }
      ],
      "payable": false,
      "stateMutability": "view",
      "type": "function"
    },
    {
      "constant": true,
      "inputs": [],
      "name": "SAI",
      "outputs": [
        {
          "internalType": "address",
          "name": "",
          "type": "address"
        }
      ],
      "payable": false,
      "stateMutability": "view",
      "type": "function"
    },
    {
      "constant": true,
      "inputs": [],
      "name": "USDC",
      "outputs": [
        {
          "internalType": "address",
          "name": "",
          "type": "address"
        }
      ],
      "payable": false,
      "stateMutability": "view",
      "type": "function"
    },
    {
      "constant": true,
      "inputs": [],
      "name": "WETH",
      "outputs": [
        {
          "internalType": "address",
          "name": "",
          "type": "address"
        }
      ],
      "payable": false,
      "stateMutability": "view",
      "type": "function"
    },
    {
      "constant": true,
      "inputs": [
        {
          "internalType": "address",
          "name": "",
          "type": "address"
        }
      ],
      "name": "currencies",
      "outputs": [
        {
          "internalType": "uint256",
          "name": "",
          "type": "uint256"
        }
      ],
      "payable": false,
      "stateMutability": "view",
      "type": "function"
    },
    {
      "constant": true,
      "inputs": [
        {
          "internalType": "address",
          "name": "token",
          "type": "address"
        }
      ],
      "name": "tokenToMarketId",
      "outputs": [
        {
          "internalType": "uint256",
          "name": "",
          "type": "uint256"
        }
      ],
      "payable": false,
      "stateMutability": "view",
      "type": "function"
    },
    {
      "constant": false,
      "inputs": [
        {
          "internalType": "uint256",
          "name": "initialAmount",
          "type": "uint256"
        }
      ],
      "name": "depositDai",
      "outputs": [
        {
          "internalType": "bool",
          "name": "",
          "type": "bool"
        }
      ],
      "payable": false,
      "stateMutability": "nonpayable",
      "type": "function"
    },
    {
      "constant": false,
      "inputs": [
        {
          "internalType": "uint256",
          "name": "initialAmount",
          "type": "uint256"
        }
      ],
      "name": "withdrawDai",
      "outputs": [
        {
          "internalType": "bool",
          "name": "",
          "type": "bool"
        }
      ],
      "payable": false,
      "stateMutability": "nonpayable",
      "type": "function"
    },
    {
      "constant": false,
      "inputs": [
        {
          "internalType": "address",
          "name": "",
          "type": "address"
        },
        {
          "components": [
            {
              "internalType": "address",
              "name": "owner",
              "type": "address"
            },
            {
              "internalType": "uint256",
              "name": "number",
              "type": "uint256"
            }
          ],
          "internalType": "struct Structs.Info",
          "name": "",
          "type": "tuple"
        },
        {
          "internalType": "bytes",
          "name": "data",
          "type": "bytes"
        }
      ],
      "name": "callFunction",
      "outputs": [],
      "payable": false,
      "stateMutability": "nonpayable",
      "type": "function"
    },
    {
      "constant": false,
      "inputs": [
        {
          "internalType": "address",
          "name": "_tokenAddress",
          "type": "address"
        }
      ],
      "name": "withdrawToken",
      "outputs": [],
      "payable": false,
      "stateMutability": "nonpayable",
      "type": "function"
    }
  ],
  "bytecode": "0x6080604052731e0447b19bb6ecfdae1e4ae1694b0c3659614e4e6000806101000a81548173ffffffffffffffffffffffffffffffffffffffff021916908373ffffffffffffffffffffffffffffffffffffffff16021790555073c02aaa39b223fe8d0a0e5c4f27ead9083c756cc2600160006101000a81548173ffffffffffffffffffffffffffffffffffffffff021916908373ffffffffffffffffffffffffffffffffffffffff1602179055507389d24a6b4ccb1b6faa2625fe562bdd9a23260359600260006101000a81548173ffffffffffffffffffffffffffffffffffffffff021916908373ffffffffffffffffffffffffffffffffffffffff16021790555073a0b86991c6218b36c1d19d4a2e9eb0ce3606eb48600360006101000a81548173ffffffffffffffffffffffffffffffffffffffff021916908373ffffffffffffffffffffffffffffffffffffffff160217905550736b175474e89094c44da98b954eedeac495271d0f600460006101000a81548173ffffffffffffffffffffffffffffffffffffffff021916908373ffffffffffffffffffffffffffffffffffffffff160217905550736b175474e89094c44da98b954eedeac495271d0f600660006101000a81548173ffffffffffffffffffffffffffffffffffffffff021916908373ffffffffffffffffffffffffffffffffffffffff160217905550600660009054906101000a900473ffffffffffffffffffffffffffffffffffffffff16600760006101000a81548173ffffffffffffffffffffffffffffffffffffffff021916908373ffffffffffffffffffffffffffffffffffffffff160217905550735d3a536e4d6dbd6114cc1ead35777bab948e3643600860006101000a81548173ffffffffffffffffffffffffffffffffffffffff021916908373ffffffffffffffffffffffffffffffffffffffff160217905550600860009054906101000a900473ffffffffffffffffffffffffffffffffffffffff16600960006101000a81548173ffffffffffffffffffffffffffffffffffffffff021916908373ffffffffffffffffffffffffffffffffffffffff160217905550733d9819210a31b4961b30ef54be2aed79b9c9cd3b600a60006101000a81548173ffffffffffffffffffffffffffffffffffffffff021916908373ffffffffffffffffffffffffffffffffffffffff160217905550600a60009054906101000a900473ffffffffffffffffffffffffffffffffffffffff16600b60006101000a81548173ffffffffffffffffffffffffffffffffffffffff021916908373ffffffffffffffffffffffffffffffffffffffff16021790555073c00e94cb662c3520282e6f5717214004a7f26888600c60006101000a81548173ffffffffffffffffffffffffffffffffffffffff021916908373ffffffffffffffffffffffffffffffffffffffff160217905550604051620004379062000a61565b6040518091039020600d55604051620004509062000a4a565b6040518091039020600e553480156200046857600080fd5b50600160056000600160009054906101000a900473ffffffffffffffffffffffffffffffffffffffff1673ffffffffffffffffffffffffffffffffffffffff1673ffffffffffffffffffffffffffffffffffffffff16815260200190815260200160002081905550600260056000600260009054906101000a900473ffffffffffffffffffffffffffffffffffffffff1673ffffffffffffffffffffffffffffffffffffffff1673ffffffffffffffffffffffffffffffffffffffff16815260200190815260200160002081905550600360056000600360009054906101000a900473ffffffffffffffffffffffffffffffffffffffff1673ffffffffffffffffffffffffffffffffffffffff1673ffffffffffffffffffffffffffffffffffffffff16815260200190815260200160002081905550600460056000600460009054906101000a900473ffffffffffffffffffffffffffffffffffffffff1673ffffffffffffffffffffffffffffffffffffffff1673ffffffffffffffffffffffffffffffffffffffff1681526020019081526020016000208190555033600f60006101000a81548173ffffffffffffffffffffffffffffffffffffffff021916908373ffffffffffffffffffffffffffffffffffffffff16021790555060606001604051908082528060200260200182016040528015620006795781602001602082028038833980820191505090505b509050600860009054906101000a900473ffffffffffffffffffffffffffffffffffffffff1681600081518110620006ad57fe5b602002602001019073ffffffffffffffffffffffffffffffffffffffff16908173ffffffffffffffffffffffffffffffffffffffff16815250506060600b60009054906101000a900473ffffffffffffffffffffffffffffffffffffffff1673ffffffffffffffffffffffffffffffffffffffff1663c2998238836040518263ffffffff1660e01b815260040162000746919062000a78565b600060405180830381600087803b1580156200076157600080fd5b505af115801562000776573d6000803e3d6000fd5b505050506040513d6000823e3d601f19601f82011682018060405250620007a19190810190620008aa565b9050600081600081518110620007b357fe5b602002602001015114620007fe576040517f08c379a0000000000000000000000000000000000000000000000000000000008152600401620007f59062000a9c565b60405180910390fd5b505062000bc2565b600082601f8301126200081857600080fd5b81516200082f620008298262000aec565b62000abe565b915081818352602084019350602081019050838560208402820111156200085557600080fd5b60005b838110156200088957816200086e888262000893565b84526020840193506020830192505060018101905062000858565b5050505092915050565b600081519050620008a48162000ba8565b92915050565b600060208284031215620008bd57600080fd5b600082015167ffffffffffffffff811115620008d857600080fd5b620008e68482850162000806565b91505092915050565b6000620008fd838362000909565b60208301905092915050565b620009148162000b6a565b82525050565b6000620009278262000b25565b62000933818562000b3d565b9350620009408362000b15565b8060005b83811015620009775781516200095b8882620008ef565b9750620009688362000b30565b92505060018101905062000944565b5085935050505092915050565b60006200099360208362000b4e565b91507f436f6d7074726f6c6c65722e656e7465724d61726b657473206661696c65642e6000830152602082019050919050565b6000620009d560088362000b5f565b91507f57495448445241570000000000000000000000000000000000000000000000006000830152600882019050919050565b600062000a1760078362000b5f565b91507f4445504f534954000000000000000000000000000000000000000000000000006000830152600782019050919050565b600062000a5782620009c6565b9150819050919050565b600062000a6e8262000a08565b9150819050919050565b6000602082019050818103600083015262000a9481846200091a565b905092915050565b6000602082019050818103600083015262000ab78162000984565b9050919050565b6000604051905081810181811067ffffffffffffffff8211171562000ae257600080fd5b8060405250919050565b600067ffffffffffffffff82111562000b0457600080fd5b602082029050602081019050919050565b6000819050602082019050919050565b600081519050919050565b6000602082019050919050565b600082825260208201905092915050565b600082825260208201905092915050565b600081905092915050565b600062000b778262000b7e565b9050919050565b600073ffffffffffffffffffffffffffffffffffffffff82169050919050565b6000819050919050565b62000bb38162000b9e565b811462000bbf57600080fd5b50565b6122308062000bd26000396000f3fe6080604052600436106100915760003560e01c80638b418713116100595780638b4187131461018f57806393a991af146101b8578063ad5c4648146101f5578063b826878814610220578063e0bab4c41461025d57610091565b806335842f74146100965780634b3fb7f8146100d35780636036cba3146100fe578063894760691461013b57806389a3027114610164575b600080fd5b3480156100a257600080fd5b506100bd60048036036100b89190810190611969565b610288565b6040516100ca9190611ec3565b60405180910390f35b3480156100df57600080fd5b506100e8610396565b6040516100f59190611e04565b60405180910390f35b34801561010a57600080fd5b50610125600480360361012091908101906118ab565b6103bc565b6040516101329190611f3e565b60405180910390f35b34801561014757600080fd5b50610162600480360361015d91908101906118ab565b6103d4565b005b34801561017057600080fd5b506101796105a5565b6040516101869190611e04565b60405180910390f35b34801561019b57600080fd5b506101b660048036036101b191908101906118d4565b6105cb565b005b3480156101c457600080fd5b506101df60048036036101da9190810190611969565b6106a7565b6040516101ec9190611ec3565b60405180910390f35b34801561020157600080fd5b5061020a610b3a565b6040516102179190611e04565b60405180910390f35b34801561022c57600080fd5b50610247600480360361024291908101906118ab565b610b60565b6040516102549190611f3e565b60405180910390f35b34801561026957600080fd5b50610272610bf5565b60405161027f9190611e04565b60405180910390f35b6000600f60009054906101000a900473ffffffffffffffffffffffffffffffffffffffff1673ffffffffffffffffffffffffffffffffffffffff163373ffffffffffffffffffffffffffffffffffffffff161461031a576040517f08c379a000000000000000000000000000000000000000000000000000000000815260040161031190611ede565b60405180910390fd5b60006003600a84028161032957fe5b0490506000838203905060608282600d5460405160200161034c93929190611f59565b604051602081830303815290604052905061038a600660009054906101000a900473ffffffffffffffffffffffffffffffffffffffff168383610c1b565b60019350505050919050565b600260009054906101000a900473ffffffffffffffffffffffffffffffffffffffff1681565b60056020528060005260406000206000915090505481565b600f60009054906101000a900473ffffffffffffffffffffffffffffffffffffffff1673ffffffffffffffffffffffffffffffffffffffff163373ffffffffffffffffffffffffffffffffffffffff1614610464576040517f08c379a000000000000000000000000000000000000000000000000000000000815260040161045b90611ede565b60405180910390fd5b60008173ffffffffffffffffffffffffffffffffffffffff166370a08231306040518263ffffffff1660e01b815260040161049f9190611e1f565b60206040518083038186803b1580156104b757600080fd5b505afa1580156104cb573d6000803e3d6000fd5b505050506040513d601f19601f820116820180604052506104ef9190810190611992565b90508173ffffffffffffffffffffffffffffffffffffffff1663a9059cbb600f60009054906101000a900473ffffffffffffffffffffffffffffffffffffffff16836040518363ffffffff1660e01b815260040161054e929190611e3a565b602060405180830381600087803b15801561056857600080fd5b505af115801561057c573d6000803e3d6000fd5b505050506040513d601f19601f820116820180604052506105a09190810190611940565b505050565b600360009054906101000a900473ffffffffffffffffffffffffffffffffffffffff1681565b6000809054906101000a900473ffffffffffffffffffffffffffffffffffffffff1673ffffffffffffffffffffffffffffffffffffffff163373ffffffffffffffffffffffffffffffffffffffff161461065a576040517f08c379a000000000000000000000000000000000000000000000000000000000815260040161065190611efe565b60405180910390fd5b6000806000848461066e91908101906119bb565b925092509250600d5481141561068a57610688838361108a565b505b600e5481141561069e5761069c6112c4565b505b50505050505050565b6000600f60009054906101000a900473ffffffffffffffffffffffffffffffffffffffff1673ffffffffffffffffffffffffffffffffffffffff163373ffffffffffffffffffffffffffffffffffffffff1614610739576040517f08c379a000000000000000000000000000000000000000000000000000000000815260040161073090611ede565b60405180910390fd5b60006003600a84028161074857fe5b0490506000838203905060608282600e5460405160200161076b93929190611f59565b60405160208183030381529060405290506107a9600660009054906101000a900473ffffffffffffffffffffffffffffffffffffffff168383610c1b565b600b60009054906101000a900473ffffffffffffffffffffffffffffffffffffffff1673ffffffffffffffffffffffffffffffffffffffff1663e9af0292306040518263ffffffff1660e01b81526004016108049190611e1f565b600060405180830381600087803b15801561081e57600080fd5b505af1158015610832573d6000803e3d6000fd5b50505050600c60009054906101000a900473ffffffffffffffffffffffffffffffffffffffff1673ffffffffffffffffffffffffffffffffffffffff1663a9059cbb600f60009054906101000a900473ffffffffffffffffffffffffffffffffffffffff16600c60009054906101000a900473ffffffffffffffffffffffffffffffffffffffff1673ffffffffffffffffffffffffffffffffffffffff166370a08231306040518263ffffffff1660e01b81526004016108f29190611e1f565b60206040518083038186803b15801561090a57600080fd5b505afa15801561091e573d6000803e3d6000fd5b505050506040513d601f19601f820116820180604052506109429190810190611992565b6040518363ffffffff1660e01b815260040161095f929190611e3a565b602060405180830381600087803b15801561097957600080fd5b505af115801561098d573d6000803e3d6000fd5b505050506040513d601f19601f820116820180604052506109b19190810190611940565b50600760009054906101000a900473ffffffffffffffffffffffffffffffffffffffff1673ffffffffffffffffffffffffffffffffffffffff1663a9059cbb600f60009054906101000a900473ffffffffffffffffffffffffffffffffffffffff16600760009054906101000a900473ffffffffffffffffffffffffffffffffffffffff1673ffffffffffffffffffffffffffffffffffffffff166370a08231306040518263ffffffff1660e01b8152600401610a6e9190611e1f565b60206040518083038186803b158015610a8657600080fd5b505afa158015610a9a573d6000803e3d6000fd5b505050506040513d601f19601f82011682018060405250610abe9190810190611992565b6040518363ffffffff1660e01b8152600401610adb929190611e3a565b602060405180830381600087803b158015610af557600080fd5b505af1158015610b09573d6000803e3d6000fd5b505050506040513d601f19601f82011682018060405250610b2d9190810190611940565b5060019350505050919050565b600160009054906101000a900473ffffffffffffffffffffffffffffffffffffffff1681565b600080600560008473ffffffffffffffffffffffffffffffffffffffff1673ffffffffffffffffffffffffffffffffffffffff1681526020019081526020016000205490506000811415610be9576040517f08c379a0000000000000000000000000000000000000000000000000000000008152600401610be090611f1e565b60405180910390fd5b60018103915050919050565b600460009054906101000a900473ffffffffffffffffffffffffffffffffffffffff1681565b8273ffffffffffffffffffffffffffffffffffffffff1663095ea7b36000809054906101000a900473ffffffffffffffffffffffffffffffffffffffff16600185016040518363ffffffff1660e01b8152600401610c7a929190611e63565b602060405180830381600087803b158015610c9457600080fd5b505af1158015610ca8573d6000803e3d6000fd5b505050506040513d601f19601f82011682018060405250610ccc9190810190611940565b5060606001604051908082528060200260200182016040528015610d0a57816020015b610cf7611659565b815260200190600190039081610cef5790505b50905060606003604051908082528060200260200182016040528015610d4a57816020015b610d37611689565b815260200190600190039081610d2f5790505b50905060405180604001604052803073ffffffffffffffffffffffffffffffffffffffff168152602001600081525082600081518110610d8657fe5b6020026020010181905250610d996116f5565b6040518060800160405280600015158152602001600080811115610db957fe5b8152602001600080811115610dca57fe5b8152602001868152509050610ddd611733565b600181600001906008811115610def57fe5b90816008811115610dfc57fe5b815250506000816020018181525050818160400181905250610e1d87610b60565b816060018181525050308160a0019073ffffffffffffffffffffffffffffffffffffffff16908173ffffffffffffffffffffffffffffffffffffffff16815250508083600081518110610e6c57fe5b6020026020010181905250610e7f611733565b600881600001906008811115610e9157fe5b90816008811115610e9e57fe5b815250506000816020018181525050308160a0019073ffffffffffffffffffffffffffffffffffffffff16908173ffffffffffffffffffffffffffffffffffffffff1681525050858160e001819052508084600181518110610efc57fe5b6020026020010181905250610f0f611733565b610f176116f5565b6040518060800160405280600115158152602001600080811115610f3757fe5b8152602001600080811115610f4857fe5b815260200160018b018152509050600082600001906008811115610f6857fe5b90816008811115610f7557fe5b815250506000826020018181525050808260400181905250610f968a610b60565b826060018181525050308260a0019073ffffffffffffffffffffffffffffffffffffffff16908173ffffffffffffffffffffffffffffffffffffffff16815250508186600281518110610fe557fe5b60200260200101819052506000809054906101000a900473ffffffffffffffffffffffffffffffffffffffff1673ffffffffffffffffffffffffffffffffffffffff1663a67a6a4588886040518363ffffffff1660e01b815260040161104c929190611e8c565b600060405180830381600087803b15801561106657600080fd5b505af115801561107a573d6000803e3d6000fd5b5050505050505050505050505050565b6000600760009054906101000a900473ffffffffffffffffffffffffffffffffffffffff1673ffffffffffffffffffffffffffffffffffffffff1663095ea7b3600860009054906101000a900473ffffffffffffffffffffffffffffffffffffffff16856040518363ffffffff1660e01b815260040161110b929190611e63565b602060405180830381600087803b15801561112557600080fd5b505af1158015611139573d6000803e3d6000fd5b505050506040513d601f19601f8201168201806040525061115d9190810190611940565b50600960009054906101000a900473ffffffffffffffffffffffffffffffffffffffff1673ffffffffffffffffffffffffffffffffffffffff1663a0712d68846040518263ffffffff1660e01b81526004016111b99190611f3e565b602060405180830381600087803b1580156111d357600080fd5b505af11580156111e7573d6000803e3d6000fd5b505050506040513d601f19601f8201168201806040525061120b9190810190611992565b50600960009054906101000a900473ffffffffffffffffffffffffffffffffffffffff1673ffffffffffffffffffffffffffffffffffffffff1663c5ebeaec836040518263ffffffff1660e01b81526004016112679190611f3e565b602060405180830381600087803b15801561128157600080fd5b505af1158015611295573d6000803e3d6000fd5b505050506040513d601f19601f820116820180604052506112b99190810190611992565b506001905092915050565b600080600960009054906101000a900473ffffffffffffffffffffffffffffffffffffffff1673ffffffffffffffffffffffffffffffffffffffff166317bfdfbc306040518263ffffffff1660e01b81526004016113229190611e1f565b602060405180830381600087803b15801561133c57600080fd5b505af1158015611350573d6000803e3d6000fd5b505050506040513d601f19601f820116820180604052506113749190810190611992565b9050600760009054906101000a900473ffffffffffffffffffffffffffffffffffffffff1673ffffffffffffffffffffffffffffffffffffffff1663095ea7b3600960009054906101000a900473ffffffffffffffffffffffffffffffffffffffff16836040518363ffffffff1660e01b81526004016113f5929190611e63565b602060405180830381600087803b15801561140f57600080fd5b505af1158015611423573d6000803e3d6000fd5b505050506040513d601f19601f820116820180604052506114479190810190611940565b50600960009054906101000a900473ffffffffffffffffffffffffffffffffffffffff1673ffffffffffffffffffffffffffffffffffffffff16630e752702826040518263ffffffff1660e01b81526004016114a39190611f3e565b602060405180830381600087803b1580156114bd57600080fd5b505af11580156114d1573d6000803e3d6000fd5b505050506040513d601f19601f820116820180604052506114f59190810190611992565b50600960009054906101000a900473ffffffffffffffffffffffffffffffffffffffff1673ffffffffffffffffffffffffffffffffffffffff166370a08231306040518263ffffffff1660e01b81526004016115519190611e1f565b60206040518083038186803b15801561156957600080fd5b505afa15801561157d573d6000803e3d6000fd5b505050506040513d601f19601f820116820180604052506115a19190810190611992565b9050600960009054906101000a900473ffffffffffffffffffffffffffffffffffffffff1673ffffffffffffffffffffffffffffffffffffffff1663db006a75826040518263ffffffff1660e01b81526004016115fe9190611f3e565b602060405180830381600087803b15801561161857600080fd5b505af115801561162c573d6000803e3d6000fd5b505050506040513d601f19601f820116820180604052506116509190810190611992565b50600191505090565b6040518060400160405280600073ffffffffffffffffffffffffffffffffffffffff168152602001600081525090565b604051806101000160405280600060088111156116a257fe5b8152602001600081526020016116b661179f565b81526020016000815260200160008152602001600073ffffffffffffffffffffffffffffffffffffffff16815260200160008152602001606081525090565b604051806080016040528060001515815260200160008081111561171557fe5b815260200160008081111561172657fe5b8152602001600081525090565b6040518061010001604052806000600881111561174c57fe5b81526020016000815260200161176061179f565b81526020016000815260200160008152602001600073ffffffffffffffffffffffffffffffffffffffff16815260200160008152602001606081525090565b60405180608001604052806000151581526020016000808111156117bf57fe5b81526020016000808111156117d057fe5b8152602001600081525090565b6000813590506117ec81612191565b92915050565b600081519050611801816121a8565b92915050565b600081359050611816816121bf565b92915050565b60008083601f84011261182e57600080fd5b8235905067ffffffffffffffff81111561184757600080fd5b60208301915083600182028301111561185f57600080fd5b9250929050565b60006040828403121561187857600080fd5b81905092915050565b600081359050611890816121d6565b92915050565b6000815190506118a5816121d6565b92915050565b6000602082840312156118bd57600080fd5b60006118cb848285016117dd565b91505092915050565b600080600080608085870312156118ea57600080fd5b60006118f8878288016117dd565b945050602061190987828801611866565b935050606085013567ffffffffffffffff81111561192657600080fd5b6119328782880161181c565b925092505092959194509250565b60006020828403121561195257600080fd5b6000611960848285016117f2565b91505092915050565b60006020828403121561197b57600080fd5b600061198984828501611881565b91505092915050565b6000602082840312156119a457600080fd5b60006119b284828501611896565b91505092915050565b6000806000606084860312156119d057600080fd5b60006119de86828701611881565b93505060206119ef86828701611881565b9250506040611a0086828701611807565b9150509250925092565b6000611a168383611caf565b905092915050565b6000611a2a8383611db7565b60408301905092915050565b611a3f816120ba565b82525050565b611a4e8161202f565b82525050565b611a5d8161202f565b82525050565b6000611a6e82611fb0565b611a788185611feb565b935083602082028501611a8a85611f90565b8060005b85811015611ac65784840389528151611aa78582611a0a565b9450611ab283611fd1565b925060208a01995050600181019050611a8e565b50829750879550505050505092915050565b6000611ae382611fbb565b611aed8185611ffc565b9350611af883611fa0565b8060005b83811015611b29578151611b108882611a1e565b9750611b1b83611fde565b925050600181019050611afc565b5085935050505092915050565b611b3f81612041565b82525050565b611b4e81612041565b82525050565b611b5d8161204d565b82525050565b6000611b6e82611fc6565b611b78818561200d565b9350611b88818560208601612126565b611b9181612159565b840191505092915050565b611ba5816120cc565b82525050565b611bb4816120de565b82525050565b611bc3816120f0565b82525050565b6000611bd660188361201e565b91507f63616c6c6572206973206e6f7420746865206f776e65722100000000000000006000830152602082019050919050565b6000611c16602c8361201e565b91507f466c6173684c6f616e3a20636f756c642062652063616c6c656420627920447960008301527f447820706f6f6c206f6e6c7900000000000000000000000000000000000000006020830152604082019050919050565b6000611c7c601c8361201e565b91507f466c6173684c6f616e3a20556e737570706f7274656420746f6b656e000000006000830152602082019050919050565b600061016083016000830151611cc86000860182611b9c565b506020830151611cdb6020860182611de6565b506040830151611cee6040860182611d62565b506060830151611d0160c0860182611de6565b506080830151611d1460e0860182611de6565b5060a0830151611d28610100860182611a45565b5060c0830151611d3c610120860182611de6565b5060e0830151848203610140860152611d558282611b63565b9150508091505092915050565b608082016000820151611d786000850182611b36565b506020820151611d8b6020850182611bab565b506040820151611d9e6040850182611bba565b506060820151611db16060850182611de6565b50505050565b604082016000820151611dcd6000850182611a45565b506020820151611de06020850182611de6565b50505050565b611def816120b0565b82525050565b611dfe816120b0565b82525050565b6000602082019050611e196000830184611a54565b92915050565b6000602082019050611e346000830184611a36565b92915050565b6000604082019050611e4f6000830185611a36565b611e5c6020830184611df5565b9392505050565b6000604082019050611e786000830185611a54565b611e856020830184611df5565b9392505050565b60006040820190508181036000830152611ea68185611ad8565b90508181036020830152611eba8184611a63565b90509392505050565b6000602082019050611ed86000830184611b45565b92915050565b60006020820190508181036000830152611ef781611bc9565b9050919050565b60006020820190508181036000830152611f1781611c09565b9050919050565b60006020820190508181036000830152611f3781611c6f565b9050919050565b6000602082019050611f536000830184611df5565b92915050565b6000606082019050611f6e6000830186611df5565b611f7b6020830185611df5565b611f886040830184611b54565b949350505050565b6000819050602082019050919050565b6000819050602082019050919050565b600081519050919050565b600081519050919050565b600081519050919050565b6000602082019050919050565b6000602082019050919050565b600082825260208201905092915050565b600082825260208201905092915050565b600082825260208201905092915050565b600082825260208201905092915050565b600061203a82612090565b9050919050565b60008115159050919050565b6000819050919050565b60008190506120658261216a565b919050565b600081905061207882612177565b919050565b600081905061208b82612184565b919050565b600073ffffffffffffffffffffffffffffffffffffffff82169050919050565b6000819050919050565b60006120c582612102565b9050919050565b60006120d782612057565b9050919050565b60006120e98261206a565b9050919050565b60006120fb8261207d565b9050919050565b600061210d82612114565b9050919050565b600061211f82612090565b9050919050565b60005b83811015612144578082015181840152602081019050612129565b83811115612153576000848401525b50505050565b6000601f19601f8301169050919050565b6009811061217457fe5b50565b6001811061218157fe5b50565b6001811061218e57fe5b50565b61219a8161202f565b81146121a557600080fd5b50565b6121b181612041565b81146121bc57600080fd5b50565b6121c88161204d565b81146121d357600080fd5b50565b6121df816120b0565b81146121ea57600080fd5b5056fea365627a7a72315820e91246036544b95e2d03fa258238f2d1edb30fa6fdaffc94d774c7b0086163846c6578706572696d656e74616cf564736f6c63430005100040",
  "source": "pragma solidity ^0.5.12;\r\npragma experimental ABIEncoderV2;\r\n\r\ninterface Erc20 {\r\n    function balanceOf(address account) external view returns (uint256);\r\n    function approve(address, uint256) external returns (bool);\r\n    function transfer(address, uint256) external returns (bool);\r\n}\r\n\r\ninterface CErc20 {\r\n    function balanceOf(address owner) external view returns (uint);\r\n    function mint(uint256) external returns (uint256);\r\n    function redeem(uint) external returns (uint);\r\n    function redeemUnderlying(uint) external returns (uint);\r\n    function borrowBalanceCurrent(address account) external returns (uint);\r\n    function borrow(uint borrowAmount) external returns (uint);\r\n    function repayBorrow(uint repayAmount) external returns (uint);\r\n}\r\n\r\ninterface Comptroller {\r\n    function enterMarkets(address[] calldata)\r\n        external\r\n        returns (uint256[] memory);\r\n\r\n    function claimComp(address holder) external;\r\n\r\n}\r\n\r\ninterface Structs {\r\n    struct Val {\r\n        uint256 value;\r\n    }\r\n\r\n    enum ActionType {\r\n      Deposit,   // supply tokens\r\n      Withdraw,  // borrow tokens\r\n      Transfer,  // transfer balance between accounts\r\n      Buy,       // buy an amount of some token (externally)\r\n      Sell,      // sell an amount of some token (externally)\r\n      Trade,     // trade tokens against another account\r\n      Liquidate, // liquidate an undercollateralized or expiring account\r\n      Vaporize,  // use excess tokens to zero-out a completely negative account\r\n      Call       // send arbitrary data to an address\r\n    }\r\n\r\n    enum AssetDenomination {\r\n        Wei // the amount is denominated in wei\r\n    }\r\n\r\n    enum AssetReference {\r\n        Delta // the amount is given as a delta from the current value\r\n    }\r\n\r\n    struct AssetAmount {\r\n        bool sign; // true if positive\r\n        AssetDenomination denomination;\r\n        AssetReference ref;\r\n        uint256 value;\r\n    }\r\n\r\n    struct ActionArgs {\r\n        ActionType actionType;\r\n        uint256 accountId;\r\n        AssetAmount amount;\r\n        uint256 primaryMarketId;\r\n        uint256 secondaryMarketId;\r\n        address otherAddress;\r\n        uint256 otherAccountId;\r\n        bytes data;\r\n    }\r\n\r\n    struct Info {\r\n        address owner;  // The address that owns the account\r\n        uint256 number; // A nonce that allows a single address to control many accounts\r\n    }\r\n\r\n    struct Wei {\r\n        bool sign; // true if positive\r\n        uint256 value;\r\n    }\r\n}\r\n\r\ncontract DyDxPool is Structs {\r\n    function getAccountWei(Info memory account, uint256 marketId) public view returns (Wei memory);\r\n    function operate(Info[] memory, ActionArgs[] memory) public;\r\n}\r\n\r\npragma solidity ^0.5.0;\r\n\r\n\r\n/**\r\n * @dev Interface of the ERC20 standard as defined in the EIP. Does not include\r\n * the optional functions; to access them see `ERC20Detailed`.\r\n */\r\ninterface IERC20 {\r\n    function balanceOf(address account) external view returns (uint256);\r\n\r\n    function approve(address spender, uint256 amount) external returns (bool);\r\n}\r\n\r\npragma solidity ^0.5.0;\r\n\r\n\r\ncontract DyDxFlashLoan is Structs {\r\n    DyDxPool pool = DyDxPool(0x1E0447b19BB6EcFdAe1e4AE1694b0C3659614e4e);\r\n\r\n    address public WETH = 0xC02aaA39b223FE8D0A0e5C4F27eAD9083C756Cc2;\r\n    address public SAI = 0x89d24A6b4CcB1B6fAA2625fE562bDD9a23260359;\r\n    address public USDC = 0xA0b86991c6218b36c1d19D4a2e9Eb0cE3606eB48;\r\n    address public DAI = 0x6B175474E89094C44Da98b954EedeAC495271d0F;\r\n    mapping(address => uint256) public currencies;\r\n\r\n    constructor() public {\r\n        currencies[WETH] = 1;\r\n        currencies[SAI] = 2;\r\n        currencies[USDC] = 3;\r\n        currencies[DAI] = 4;\r\n    }\r\n\r\n    modifier onlyPool() {\r\n        require(\r\n            msg.sender == address(pool),\r\n            \"FlashLoan: could be called by DyDx pool only\"\r\n        );\r\n        _;\r\n    }\r\n\r\n    function tokenToMarketId(address token) public view returns (uint256) {\r\n        uint256 marketId = currencies[token];\r\n        require(marketId != 0, \"FlashLoan: Unsupported token\");\r\n        return marketId - 1;\r\n    }\r\n\r\n    // the DyDx will call `callFunction(address sender, Info memory accountInfo, bytes memory data) public` after during `operate` call\r\n    function flashloan(address token, uint256 amount, bytes memory data)\r\n        internal\r\n    {\r\n        IERC20(token).approve(address(pool), amount + 1);\r\n        Info[] memory infos = new Info[](1);\r\n        ActionArgs[] memory args = new ActionArgs[](3);\r\n\r\n        infos[0] = Info(address(this), 0);\r\n\r\n        AssetAmount memory wamt = AssetAmount(\r\n            false,\r\n            AssetDenomination.Wei,\r\n            AssetReference.Delta,\r\n            amount\r\n        );\r\n        ActionArgs memory withdraw;\r\n        withdraw.actionType = ActionType.Withdraw;\r\n        withdraw.accountId = 0;\r\n        withdraw.amount = wamt;\r\n        withdraw.primaryMarketId = tokenToMarketId(token);\r\n        withdraw.otherAddress = address(this);\r\n\r\n        args[0] = withdraw;\r\n\r\n        ActionArgs memory call;\r\n        call.actionType = ActionType.Call;\r\n        call.accountId = 0;\r\n        call.otherAddress = address(this);\r\n        call.data = data;\r\n\r\n        args[1] = call;\r\n\r\n        ActionArgs memory deposit;\r\n        AssetAmount memory damt = AssetAmount(\r\n            true,\r\n            AssetDenomination.Wei,\r\n            AssetReference.Delta,\r\n            amount + 1\r\n        );\r\n        deposit.actionType = ActionType.Deposit;\r\n        deposit.accountId = 0;\r\n        deposit.amount = damt;\r\n        deposit.primaryMarketId = tokenToMarketId(token);\r\n        deposit.otherAddress = address(this);\r\n\r\n        args[2] = deposit;\r\n\r\n        pool.operate(infos, args);\r\n    }\r\n}\r\n\r\npragma solidity ^0.5.0;\r\n\r\ncontract LeveragedYieldFarm is DyDxFlashLoan  {\r\n    // Mainnet Dai\r\n    // https://etherscan.io/address/0x6b175474e89094c44da98b954eedeac495271d0f#readContract\r\n    address daiAddress = 0x6B175474E89094C44Da98b954EedeAC495271d0F;\r\n    Erc20 dai = Erc20(daiAddress);\r\n\r\n    // Mainnet cDai\r\n    // https://etherscan.io/address/0x5d3a536e4d6dbd6114cc1ead35777bab948e3643#readProxyContract\r\n    address cDaiAddress = 0x5d3a536E4D6DbD6114cc1Ead35777bAB948E3643;\r\n    CErc20 cDai = CErc20(cDaiAddress);\r\n\r\n    // Mainnet Comptroller\r\n    // https://etherscan.io/address/0x3d9819210a31b4961b30ef54be2aed79b9c9cd3b#readProxyContract\r\n    address comptrollerAddress = 0x3d9819210A31b4961b30EF54bE2aeD79B9c9Cd3B;\r\n    Comptroller comptroller = Comptroller(comptrollerAddress);\r\n\r\n    // COMP ERC-20 token\r\n    // https://etherscan.io/token/0xc00e94cb662c3520282e6f5717214004a7f26888\r\n    Erc20 compToken = Erc20(0xc00e94Cb662C3520282E6f5717214004A7f26888);\r\n\r\n    // Deposit/Withdraw values\r\n    bytes32 DEPOSIT = keccak256(\"DEPOSIT\");\r\n    bytes32 WITHDRAW = keccak256(\"WITHDRAW\");\r\n\r\n    // Contract owner\r\n    address payable owner;\r\n\r\n    event FlashLoan(address indexed _from, bytes32 indexed _id, uint _value);\r\n\r\n    // Modifiers\r\n    modifier onlyOwner() {\r\n        require(msg.sender == owner, \"caller is not the owner!\");\r\n        _;\r\n    }\r\n\r\n    // Don't allow contract to receive Ether by mistake\r\n    function() external payable {\r\n        revert();\r\n    }\r\n\r\n    constructor() public {\r\n        // Track the contract owner\r\n        owner = msg.sender;\r\n\r\n        // Enter the cDai market so you can borrow another type of asset\r\n        address[] memory cTokens = new address[](1);\r\n        cTokens[0] = cDaiAddress;\r\n        uint256[] memory errors = comptroller.enterMarkets(cTokens);\r\n        if (errors[0] != 0) {\r\n            revert(\"Comptroller.enterMarkets failed.\");\r\n        }\r\n    }\r\n\r\n    // Do not deposit all your DAI because you must pay flash loan fees\r\n    // Always keep at least 1 DAI in the contract\r\n    function depositDai(uint256 initialAmount) external onlyOwner returns (bool){\r\n        // Total deposit: 30% initial amount, 70% flash loan\r\n        uint256 totalAmount = (initialAmount * 10) / 3;\r\n\r\n        // loan is 70% of total deposit\r\n        uint256 flashLoanAmount = totalAmount - initialAmount;\r\n\r\n        // Get DAI Flash Loan for \"DEPOSIT\"\r\n        bytes memory data = abi.encode(totalAmount, flashLoanAmount, DEPOSIT);\r\n        flashloan(daiAddress, flashLoanAmount, data); // execution goes to `callFunction`\r\n\r\n        // Handle remaining execution inside handleDeposit() function\r\n\r\n        return true;\r\n    }\r\n\r\n\r\n    // You must have some Dai in your contract still to pay flash loan fee!\r\n    // Always keep at least 1 DAI in the contract\r\n    function withdrawDai(uint256 initialAmount) external onlyOwner returns (bool){\r\n        // Total deposit: 30% initial amount, 70% flash loan\r\n        uint256 totalAmount = (initialAmount * 10) / 3;\r\n\r\n        // loan is 70% of total deposit\r\n        uint256 flashLoanAmount = totalAmount - initialAmount;\r\n\r\n        // Use flash loan to payback borrowed amount\r\n        bytes memory data = abi.encode(totalAmount, flashLoanAmount, WITHDRAW);\r\n        flashloan(daiAddress, flashLoanAmount, data); // execution goes to `callFunction`\r\n\r\n        // Handle repayment inside handleWithdraw() function\r\n\r\n        // Claim COMP tokens\r\n        comptroller.claimComp(address(this));\r\n\r\n        // Withdraw COMP tokens\r\n        compToken.transfer(owner, compToken.balanceOf(address(this)));\r\n\r\n        // Withdraw Dai to the wallet\r\n        dai.transfer(owner, dai.balanceOf(address(this)));\r\n\r\n        return true;\r\n    }\r\n\r\n\r\n    function callFunction(\r\n        address, /* sender */\r\n        Info calldata, /* accountInfo */\r\n        bytes calldata data\r\n    ) external onlyPool {\r\n        (uint256 totalAmount, uint256 flashLoanAmount, bytes32 operation) = abi\r\n            .decode(data, (uint256, uint256, bytes32));\r\n\r\n        if(operation == DEPOSIT) {\r\n            handleDeposit(totalAmount, flashLoanAmount);\r\n        }\r\n\r\n        if(operation == WITHDRAW) {\r\n            handleWithdraw();\r\n        }\r\n    }\r\n\r\n    // You must first send DAI to this contract before you can call this function\r\n    function handleDeposit(uint256 totalAmount, uint256 flashLoanAmount) internal returns (bool) {\r\n        // Approve Dai tokens as collateral\r\n        dai.approve(cDaiAddress, totalAmount);\r\n\r\n        // Provide collateral by minting cDai tokens\r\n        cDai.mint(totalAmount);\r\n\r\n        // Borrow Dai\r\n        cDai.borrow(flashLoanAmount);\r\n\r\n        // Start earning COMP tokens, yay!\r\n        return true;\r\n    }\r\n\r\n    function handleWithdraw() internal returns (bool) {\r\n        uint256 balance;\r\n\r\n        // Get curent borrow Balance\r\n        balance = cDai.borrowBalanceCurrent(address(this));\r\n\r\n        // Approve tokens for repayment\r\n        dai.approve(address(cDai), balance);\r\n\r\n        // Repay tokens\r\n        cDai.repayBorrow(balance);\r\n\r\n        // Get cDai balance\r\n        balance = cDai.balanceOf(address(this));\r\n\r\n        // Redeem cDai\r\n        cDai.redeem(balance);\r\n\r\n        return true;\r\n    }\r\n\r\n    // Fallback in case any other tokens are sent to this contract\r\n    function withdrawToken(address _tokenAddress) public onlyOwner {\r\n        uint256 balance = Erc20(_tokenAddress).balanceOf(address(this));\r\n        Erc20(_tokenAddress).transfer(owner, balance);\r\n    }\r\n\r\n}\r\n",
  "sourcePath": "C:\\Users\\vgril\\OneDrive\\Documents\\Blockchain\\Smart Contracts\\defi-bot\\src\\contracts\\examples\\LeveragedYieldFarm.sol",
  "compiler": {
    "name": "solc",
    "version": "0.5.16+commit.9c3226ce.Emscripten.clang"
  },
  "schemaVersion": "3.4.6",
  "updatedAt": "2022-03-14T19:02:04.372Z",
  "devdoc": {
    "methods": {}
  },
  "userdoc": {
    "methods": {}
  }
}